:060000000A128A11382CDF
:1008600064008001840A0406031900340406312C54
:10087000FB01FC0183132030840038300A128A11F6
:1008800030240A128A1183010A128A11722D482C0F
:100890000130F0020030031CF103F102FF30710659
:1008A000031D542CFF307006031D572C582C482C68
:1008B0000800F200720883120313880086140611E0
:1008C0008615E830F0000330F1000A128A1147243F
:1008D0000A128A118312031386110800F2007208AB
:1008E000831203138800861006118615E830F00085
:1008F0000330F1000A128A1147240A128A11831266
:1009000003138611080038300A128A116E240A1265
:100910008A110C300A128A116E240A128A11803050
:100920000A128A116E240A128A11C0300A128A1120
:100930006E240A128A1101300A128A116E240A12D8
:100940008A1108000310003003180130F600F31F6D
:10095000AA2CAB2CB32CF209F309F20A0319F30AFF
:10096000F6010314F60DF11FB62CB72CBC2CF009C0
:10097000F109F00A0319F10A710870040319C12C76
:10098000C22CF22CF5010314F50DD12C013003100B
:10099000F00DF10DFF3E031DC72C0130F40074086B
:1009A000F507F11FD42CD52CC62C71087302031D3A
:1009B000DB2C70087202031CDE2CDF2CE52C700887
:1009C000F2027108031CF303F30201300310F10C6F
:1009D000F00CFF3E031DE62C0130F502031DF12C47
:1009E000F22CD52C7608031DF62CFB2CF209F3090A
:1009F000F20A0319F30A7308F101F1077208F00112
:100A0000F00708000310003003180130F600F11F52
:100A10000A2D0B2D132DF009F109F00A0319F10A23
:100A2000F6010314F60DF31F162D172D202DF209D4
:100A3000F309F20A0319F30A0130F4007408F60608
:100A40000030F7000030F800710870040319292DF8
:100A50002A2D622DF5010314F50D392D01300310F7
:100A6000F00DF10DFF3E031D2F2D0130F400740831
:100A7000F507F11F3C2D3D2D2E2D01300310F70DF4
:100A8000F80DFF3E031D3E2D71087302031D4A2D14
:100A900070087202031C4D2D4E2D552D7008F20268
:100AA0007108031CF303F302771401300310F10CF7
:100AB000F00CFF3E031D562D0130F502031D612D84
:100AC000622D3D2D7608031D662D6B2DF709F80963
:100AD000F70A0319F80A7808F101F1077708F0011D
:100AE000F0070800013083160313850083120313F7
:100AF00085010130831603138600831203138601D8
:100B000002308316031387008312031387018316B1
:100B1000031388018312031388010A128A118324A4
:100B20000A128A1183160313811601168312031306
:100B30008101033090008F018E01E830F000033016
:100B4000F1000A128A1147240A128A118312031330
:100B50000108F900FA017908B0007A08B1000A30FA
:100B6000F0000030F1003108F301F3073008F20122
:100B7000F2070A128A1102250A128A1171088312D9
:100B80000313A101A1077008A001A0070A30F0001B
:100B90000030F1003108F301F3073008F201F207E9
:100BA0000A128A11A2240A128A11710883120313ED
:100BB000A901A9077008A801A807C0300A128A1164
:100BC0006E240A128A114D300A128A1159240A120F
:100BD0008A11C1300A128A116E240A128A114D300C
:100BE0000A128A1159240A128A1180300A128A11B3
:100BF0006E240A128A11831203132008303E0A124F
:100C00008A1159240A128A11831203132808303ECC
:100C10000A128A1159240A128A1182300A128A1180
:100C20006E240A128A113A300A128A1159240A12C1
:100C30008A11C2300A128A116E240A128A113A30BD
:100C40000A128A1159240A128A11E830F00003307E
:100C5000F1000A128A1147240A128A11831203131F
:100C60000F08F900FA010830FE000310F90DFA0D23
:100C7000FE0B352E7908FB007A08FC000E087B0776
:100C8000FB007C0803187C0AFC007C08803AFE000C
:100C900080307E02031D4E2E3D307B02031C512E00
:100CA000522E622E7B08C43EFB007C080318013ED6
:100CB000FF3EFC00013083120313B0070318B10A92
:100CC0000030B1070A30F0000030F1007C08F30179
:100CD000F3077B08F201F2070A128A1102250A12B1
:100CE0008A11710883120313A301A3077008A201DC
:100CF000A2070A30F0000030F1007C08F301F3078E
:100D00007B08F201F2070A128A11A2240A128A1140
:100D1000710883120313AB01AB077008AA01AA077D
:100D2000C3300A128A116E240A128A1153300A1231
:100D30008A1159240A128A11C4300A128A116E24A7
:100D40000A128A1153300A128A1159240A128A117E
:100D500083300A128A116E240A128A118312031335
:100D60002208303E0A128A1159240A128A1183126B
:100D700003132A08303E0A128A1159240A128A11D2
:100D80008312031331083004031DC72EC82E232FEE
:100D90007C087B04031DCD2ECE2E232F061CD12EC6
:100DA000D22E232F01300A128A116E240A128A11C0
:100DB000C0300A128A116E240A128A1173300A1284
:100DC0008A1159240A128A1165300A128A1159248B
:100DD0000A128A1174300A128A1159240A128A11CD
:100DE0005F300A128A1159240A128A1174300A12C9
:100DF0008A1159240A128A1169300A128A11592457
:100E00000A128A116D300A128A1159240A128A11A3
:100E100065300A128A1159240A128A1172300A1294
:100E20008A1159240A128A111030F0002730F1007B
:100E30000A128A1147240A128A1101300A128A11F1
:100E40006E240A128A118312031331083004031925
:100E50002A2F2B2FFB2F061C2E2F2F2FFB2F071790
:100E60003108B501B5073008B401B407F72F0A30CF
:100E7000F0000030F1003508F301F3073408F20107
:100E8000F2070A128A1102250A128A1171088312C6
:100E90000313A701A7077008A601A6070A30F000F0
:100EA0000030F1003508F301F3073408F201F207CE
:100EB0000A128A11A2240A128A11710883120313DA
:100EC000AF01AF077008AE01AE0780300A128A1179
:100ED0006E240A128A11831203132608303E0A1266
:100EE0008A1159240A128A11831203132E08303EE4
:100EF0000A128A1159240A128A117C0883120313D8
:100F0000B701B7077B08B601B607ED2F0A30F0002E
:100F10000030F1003708F301F3073608F201F20759
:100F20000A128A1102250A128A1171088312031308
:100F3000A501A5077008A401A4070A30F00000303D
:100F4000F1003708F301F3073608F201F2070A123D
:100F50008A11A2240A128A11710883120313AD01A7
:100F6000AD077008AC01AC0783300A128A116E24F9
:100F70000A128A11831203132408303E0A128A11BE
:100F800059240A128A11831203132C08303E0A12C4
:100F90008A1159240A128A1183120313370836045E
:100FA000031DD32FD42FE72F3C30FB000030FC0073
:100FB00035083404031DDD2FDE2FE72F37083604F4
:100FC000031DE32FE42FE72F81018E018F01FF30F6
:100FD000B6070318B70AFF30B707B71FF02FF12F76
:100FE000862FFF30B4070318B50AFF30B507B51FC9
:100FF000FA2FFB2F372F07139D2D0A128A11002875
:00000001FF
