:020000040000FA
:100000000C945D000C9485000C9485000C94850084
:100010000C9485000C9485000C9485000C9485004C
:100020000C9485000C9485000C9485000C9485003C
:100030000C9485000C9485000C9485000C9485002C
:100040000C9469020C9485000C94D9020C94B302B0
:100050000C9485000C9485000C9485000C9485000C
:100060000C9485000C9485000000000024002700FB
:100070002A0000000000250028002B0004040404CE
:100080000404040402020202020203030303030342
:10009000010204081020408001020408102001021F
:1000A00004081020000000080002010000030407FB
:1000B00000000000000000004C0411241FBECFEF20
:1000C000D8E0DEBFCDBF21E0ACE2B1E001C01D92BF
:1000D000A63DB207E1F711E0A0E0B1E0E4E5FDE004
:1000E00002C005900D92AC32B107D9F710E0CDE512
:1000F000D0E004C02197FE010E94B004CC35D107A6
:10010000C9F70E940B030C94A8060C940000E7EAC0
:10011000F0E02491E3E9F0E09491EFE7F0E0E4917E
:10012000EE23C9F0222339F0233001F1A8F4213065
:1001300019F1223029F1F0E0EE0FFF1FEE58FF4FCA
:10014000A591B4912FB7F894EC91811126C09095A8
:100150009E239C932FBF08952730A9F02830C9F023
:10016000243049F7209180002F7D03C0209180002A
:100170002F7720938000DFCF24B52F7724BDDBCFEE
:1001800024B52F7DFBCF2091B0002F772093B000B6
:10019000D2CF2091B0002F7DF9CF9E2BDACF3FB781
:1001A000F89480912D0190912E01A0912F01B09192
:1001B000300126B5A89B05C02F3F19F00196A11D5F
:1001C000B11D3FBFBA2FA92F982F8827BC01CD01A1
:1001D000620F711D811D911D42E0660F771F881F00
:1001E000991F4A95D1F70895AF92BF92CF92DF92AF
:1001F000EF92FF920F931F93CF93DF936C017B01DC
:100200008B01040F151FEB015E01AE18BF08C0176C
:10021000D10759F06991D601ED91FC910190F081DF
:10022000E02DC6010995892B79F7C501DF91CF91A2
:100230001F910F91FF90EF90DF90CF90BF90AF9004
:100240000895FC01538D448D252F30E0842F90E0DC
:10025000821B930B541710F0CF96089501970895C1
:10026000FC01918D828D981761F0A28DAE0FBF2F8A
:10027000B11D5D968C91928D9F5F9F73928F90E0E0
:1002800008958FEF9FEF08952FB7F8948091310173
:1002900090913201A0913301B09134012FBF80932E
:1002A0003D0190933E01A0933F01B093400185E34F
:1002B00091E00E94300197FF26C02FB7F8948091FB
:1002C000310190913201A0913301B09134012FBFDF
:1002D00040913D0150913E0160913F01709140017C
:1002E000841B950BA60BB70B4091390150913A0135
:1002F00060913B0170913C0184179507A607B707F1
:10030000B0F28FEF9FEF0895FC01918D828D9817C9
:1003100031F0828DE80FF11D858D90E008958FEF0B
:100320009FEF0895FC01918D228D892F90E0805CD4
:100330009F4F821B91098F739927089585E391E060
:100340000E94920121E0892B09F420E0822F089578
:1003500080E090E0892B29F00E949E0181110C948D
:1003600000000895FC01A48DA80FB92FB11DA35A58
:10037000BF4F2C91848D90E001968F739927848FC5
:10038000A689B7892C93A089B1898C9183708064E8
:100390008C93938D848D981306C00288F389E02D89
:1003A00080818F7D80830895EF92FF920F931F933A
:1003B000CF93DF93EC0181E0888F9B8D8C8D981318
:1003C0001AC0E889F989808185FF15C09FB7F89424
:1003D000EE89FF896083E889F98980818370806470
:1003E00080839FBF81E090E0DF91CF911F910F91BB
:1003F000FF90EF900895F62E0B8D10E00F5F1F4FCA
:100400000F731127E02E8C8D8E110CC00FB607FCD8
:10041000FACFE889F989808185FFF5CFCE010E9466
:10042000B201F1CFEB8DEC0FFD2FF11DE35AFF4F21
:10043000F0829FB7F8940B8FEA89FB8980818062F4
:10044000CFCFCF93DF93EC01888D8823B9F0AA89B1
:10045000BB89E889F9898C9185FD03C0808186FD7F
:100460000DC00FB607FCF7CF8C9185FFF2CF8081CE
:1004700085FFEDCFCE010E94B201E9CFDF91CF9190
:1004800008950F931F93CF93DF93EC018881998197
:10049000009759F02A813B812617370730F081E019
:1004A000DF91CF911F910F9108958B016F5F7F4F67
:1004B0000E94DB05009759F0998388831B830A8388
:1004C0002C813D81232B59F7FC011082E8CF80E07D
:1004D000E7CF1F920F920FB60F9211242F933F93E5
:1004E0008F939F93AF93BF9380913101909132018D
:1004F000A0913301B091340130912C0123E0230FFE
:100500002D3758F50196A11DB11D20932C01809324
:10051000310190933201A0933301B0933401809163
:100520002D0190912E01A0912F01B09130010196E3
:10053000A11DB11D80932D0190932E01A0932F0139
:10054000B0933001BF91AF919F918F913F912F91C7
:100550000F900FBE0F901F90189526E8230F02965C
:10056000A11DB11DD2CF1F920F920FB60F92112471
:100570002F933F934F935F936F937F938F939F93AB
:10058000AF93BF93EF93FF9385E391E00E94B20195
:10059000FF91EF91BF91AF919F918F917F916F915B
:1005A0005F914F913F912F910F900FBE0F901F9031
:1005B00018951F920F920FB60F9211242F938F93BD
:1005C0009F93EF93FF93E0914501F0914601808165
:1005D000E0914B01F0914C0182FD1BC09081809114
:1005E0004E018F5F8F7320914F01821741F0E09190
:1005F0004E01F0E0EB5CFE4F958F80934E01FF9132
:10060000EF919F918F912F910F900FBE0F901F90A0
:1006100018958081F4CFCF93DF93CDB7DEB72897BD
:100620000FB6F894DEBF0FBECDBF789484B582605C
:1006300084BD84B5816084BD85B5826085BD85B586
:10064000816085BD80916E00816080936E00109204
:10065000810080918100826080938100809181007F
:100660008160809381008091800081608093800010
:100670008091B10084608093B1008091B00081606E
:100680008093B00080917A00846080937A0080919A
:100690007A00826080937A0080917A0081608093F2
:1006A0007A0080917A00806880937A001092C1006D
:1006B000E0914501F091460182E08083E0914101A3
:1006C000F09142011082E0914301F091440180E1F8
:1006D000808310924D01E0914901F0914A0186E03A
:1006E0008083E0914701F09148018081806180839F
:1006F000E0914701F0914801808188608083E0911A
:100700004701F0914801808180688083E091470132
:10071000F091480180818F7D8083E3E9F0E02491AE
:10072000EFE7F0E08491882399F090E0880F991F1B
:10073000FC01E859FF4FA591B491FC01EE58FF4F21
:10074000859194918FB7F894EC91E22BEC938FBF45
:1007500090E0E92E90E0F92E85E391E00E9492016D
:10076000181619060CF08CC01A8219821C821B8282
:100770001E821D8270E060E0CE0101960E9441025F
:1007800029813A8181112BC02115310519F0C90148
:100790000E9452051A8219821E821D821C821B82AF
:1007A0000E94440197FD23C08F8318860D811E810E
:1007B0000F5F1F4FB801CE0101960E9441028823AE
:1007C00079F329813A818D819E81BE01695F7F4FD6
:1007D000820F931F0E94A1061E830D83E1CF1E820C
:1007E0001D826BE271E0C9010E94A106D9CF40E1F0
:1007F00050E068E171E085E391E00E94F4004D81F2
:100800005E8169817A8185E391E00E94F40042E093
:1008100050E069E271E085E391E00E94F40081E03C
:100820000E9487000E94CF002B013C0188EE882E99
:1008300083E0982EA12CB12C0E94CF006419750979
:1008400086099709683E734081059105A8F321E068
:10085000821A9108A108B10888EE480E83E0581E5C
:10086000611C711C81149104A104B10429F780E07A
:100870000E94870089819A81009711F00E94520599
:10088000E114F10409F468CF0E949E01882309F461
:1008900063CF0E94000060CFE5E3F1E01382128293
:1008A00088EE93E0A0E0B0E084839583A683B783CD
:1008B0008AE091E09183808385EC90E0958784873E
:1008C00084EC90E09787868780EC90E0918B808B1A
:1008D00081EC90E0938B828B82EC90E0958B848B03
:1008E00086EC90E0978B868B118E128E138E148E71
:1008F00008952F923F924F925F926F927F928F92C4
:100900009F92AF92BF92CF92DF92EF92FF920F939E
:100910001F93CF93DF93CDB7DEB7CA1BDB0B0FB6A8
:10092000F894DEBF0FBECDBF09942A883988488865
:100930005F846E847D848C849B84AA84B984C884FB
:10094000DF80EE80FD800C811B81AA81B981CE0FF2
:10095000D11D0FB6F894DEBF0FBECDBFED010895D7
:10096000EE0FFF1F0590F491E02D09940F931F9354
:10097000CF93DF938230910510F482E090E0E09114
:10098000D401F091D50130E020E0B0E0A0E0309754
:1009900099F42115310509F44AC0281B390B24307C
:1009A0003105D8F58A819B816115710589F1FB01BB
:1009B00093838283FE0111C04081518102811381A2
:1009C00048175907E0F04817590799F4109761F054
:1009D00012960C93129713961C933296CF01DF91C7
:1009E000CF911F910F9108950093D4011093D501D9
:1009F000F4CF2115310551F04217530738F0A90102
:100A0000DB019A01BD01DF01F801C1CFEF01F9CF90
:100A10009093D5018093D401CDCFFE01E20FF31F57
:100A2000819391932250310939832883D7CF209124
:100A3000D2013091D301232B41F420910201309156
:100A400003013093D3012093D20120910001309112
:100A500001012115310541F42DB73EB74091040144
:100A600050910501241B350BE091D201F091D30187
:100A7000E217F307A0F42E1B3F0B2817390778F075
:100A8000AC014E5F5F4F2417350748F04E0F5F1FD4
:100A90005093D3014093D201819391939FCFF0E083
:100AA000E0E09CCFCF93DF930097E9F0FC01329711
:100AB00013821282A091D401B091D501ED0130E0F2
:100AC00020E01097A1F420813181820F931F2091A3
:100AD000D2013091D3012817390709F061C0F09392
:100AE000D301E093D201DF91CF910895EA01CE17AF
:100AF000DF07E8F54A815B819E0141155105B1F799
:100B0000E901FB83EA8349915991C40FD51FEC1782
:100B1000FD0761F4808191810296840F951FE901A0
:100B200099838883828193819B838A83F0E0E0E0CC
:100B300012968D919C9113970097B9F52D913C9148
:100B40001197CD010296820F931F2091D20130910F
:100B5000D3012817390739F6309751F51092D5018E
:100B60001092D401B093D301A093D201BCCFD38310
:100B7000C28340815181840F951FC817D90761F442
:100B80004E5F5F4F88819981480F591F5183408381
:100B90008A819B81938382832115310509F0B0CF2F
:100BA000F093D501E093D4019ECFFD01DC01C0CFCD
:100BB00013821282D7CFB0E0A0E0E1EEF5E00C9412
:100BC0007B048C01009751F4CB010E94B6048C0188
:100BD000C801CDB7DEB7E0E10C949704FC01E60F45
:100BE000F71F9C0122503109E217F30708F49DC05A
:100BF000D901CD91DC911197C617D70798F0C53070
:100C0000D10530F3CE0104978617970708F3C61B6A
:100C1000D70B2297C193D1936D937C93CF010E9400
:100C20005205D6CF5B01AC1ABD0A4C018C0E9D1E3D
:100C3000A091D401B091D501512C412CF12CE12C83
:100C4000109731F58091D2019091D30188159905C3
:100C500009F05CC04616570608F058C080910001A4
:100C600090910101009741F48DB79EB74091040126
:100C700050910501841B950BE817F90708F055C042
:100C8000F093D301E093D201F90171836083A0CF87
:100C90008D919C91119712966C90129713967C905F
:100CA0001397A815B90559F56C0142E0C40ED11C83
:100CB000CA14DB0420F1AC014A195B09DA0112966F
:100CC000159780F06282738251834083D9016D93BE
:100CD0007C93E114F10471F0D7011396FC93EE9329
:100CE000129776CF22968C0F9D1FF90191838083F6
:100CF000F301EFCFF093D501E093D40169CF48160B
:100D0000590608F42C017D01D3019ACFCB010E9432
:100D1000B6047C01009749F0AE01B8010E94980624
:100D2000C8010E945205870153CF10E000E050CF68
:100D3000FB01DC0102C001900D9241505040D8F7F8
:100D40000895FB01DC0101900D920020E1F7089568
:100D5000F894FFCF0000D601800000000000D4010D
:100D6000F4002101210292013001840152454345E2
:100D7000495645445F444154413A2020000D0A0041
:107E0000112484B714BE81FFF0D085E080938100F7
:107E100082E08093C00088E18093C10086E0809377
:107E2000C20080E18093C4008EE0C9D0259A86E02C
:107E300020E33CEF91E0309385002093840096BBD3
:107E4000B09BFECF1D9AA8958150A9F7CC24DD24C4
:107E500088248394B5E0AB2EA1E19A2EF3E0BF2EE7
:107E6000A2D0813461F49FD0082FAFD0023811F036
:107E7000013811F484E001C083E08DD089C08234E0
:107E800011F484E103C0853419F485E0A6D080C0E4
:107E9000853579F488D0E82EFF2485D0082F10E0AE
:107EA000102F00270E291F29000F111F8ED06801E7
:107EB0006FC0863521F484E090D080E0DECF843638
:107EC00009F040C070D06FD0082F6DD080E0C81688
:107ED00080E7D80618F4F601B7BEE895C0E0D1E017
:107EE00062D089930C17E1F7F0E0CF16F0E7DF06D8
:107EF00018F0F601B7BEE89568D007B600FCFDCFD4
:107F0000A601A0E0B1E02C9130E011968C91119780
:107F100090E0982F8827822B932B1296FA010C0160
:107F200087BEE89511244E5F5F4FF1E0A038BF0790
:107F300051F7F601A7BEE89507B600FCFDCF97BE46
:107F4000E89526C08437B1F42ED02DD0F82E2BD052
:107F50003CD0F601EF2C8F010F5F1F4F84911BD097
:107F6000EA94F801C1F70894C11CD11CFA94CF0C13
:107F7000D11C0EC0853739F428D08EE10CD085E9AC
:107F80000AD08FE07ACF813511F488E018D01DD067
:107F900080E101D065CF982F8091C00085FFFCCF94
:107FA0009093C60008958091C00087FFFCCF809118
:107FB000C00084FD01C0A8958091C6000895E0E648
:107FC000F0E098E1908380830895EDDF803219F02E
:107FD00088E0F5DFFFCF84E1DECF1F93182FE3DFCA
:107FE0001150E9F7F2DF1F91089580E0E8DFEE27F6
:047FF000FF270994CA
:027FFE00040479
:00000001FF
