:100000000A128A11EE2B00308A000408840A820743
:10001000003463346F346E346E3465346334743456
:1000200069346E3467342E342E342E342E342E340C
:100030002E342E340034633461346C346C34203408
:1000400065346E34643465346434203420342034B0
:100050002034203400346434693461346C34203406
:1000600074346834653420346E3475346D346234DD
:10007000653472340034643472346F347034203434
:0A00800063346F3469346E340034C9
:10070200013400340134003464008001840A040698
:10071200031900340406862B8E2B0130F0020030C0
:10072200031CF103F102FF307106031D9A2BFF3007
:100732007006031D9D2B9E2B8E2B0800F200720863
:10074200831203138800071687120717B830F000C8
:100752000B30F1000A128A118D230A128A118312B8
:10076200031307130800F2007208831203138800B0
:10077200071287120717B830F0000B30F1000A1287
:100782008A118D230A128A11831203130713080098
:1007920038300A128A11B4230A128A1106300A1258
:1007A2008A11B4230A128A110C300A128A11B42354
:1007B2000A128A1180300A128A11B4230A128A118B
:1007C200C0300A128A11B4230A128A1101300A12A5
:1007D2008A11B4230A128A110800FA01FB01FC01F2
:1007E200FD018313203084003A300A128A118523D6
:1007F2000A128A110A128A1181230A128A11BA0074
:100802000A128A1182230A128A11BB000A128A1161
:1008120083230A128A11BC000A128A1184230A1243
:100822008A11BD0083010A128A11122DF3000030D1
:1008320083120313B8000030B900342C3808730750
:1008420084000A128A1103200A128A110A128A11DA
:100852009F230A128A11013083120313B807031867
:10086200B90A0030B9073808730784000A128A11DE
:1008720003200A128A110038031D402C412C1F2C20
:1008820008000310003003180130F600F31F4A2C51
:100892004B2C532CF209F309F20A0319F30AF6015D
:1008A2000314F60DF11F562C572C5C2CF009F1099C
:1008B200F00A0319F10A710870040319612C622C01
:1008C200922CF5010314F50D712C01300310F00D7B
:1008D200F10DFF3E031D672C0130F4007408F5078B
:1008E200F11F742C752C662C71087302031D7B2C6E
:1008F20070087202031C7E2C7F2C852C7008F20279
:100902007108031CF303F30201300310F10CF00C25
:10091200FF3E031D862C0130F502031D912C922C03
:10092200752C7608031D962C9B2CF209F309F20A0A
:100932000319F30A7308F101F1077208F001F007D5
:1009420008000310003003180130F600F11FAA2C32
:10095200AB2CB32CF009F109F00A0319F10AF601E4
:100962000314F60DF31FB62CB72CC02CF209F309B1
:10097200F20A0319F30A0130F4007408F606003093
:10098200F7000030F800710870040319C92CCA2C52
:10099200022DF5010314F50DD92C01300310F00DD1
:1009A200F10DFF3E031DCF2C0130F4007408F50752
:1009B200F11FDC2CDD2CCE2C01300310F70DF80DCD
:1009C200FF3E031DDE2C71087302031DEA2C700822
:1009D2007202031CED2CEE2CF52C7008F202710849
:1009E200031CF303F302771401300310F10CF00C33
:1009F200FF3E031DF62C0130F502031D012D022DD1
:100A0200DD2C7608031D062D0B2DF709F809F70AD0
:100A12000319F80A7808F101F1077708F001F007E5
:100A220008008316031387018312031387010F3013
:100A3200831603138600831203138601831603139E
:100A420088018312031388010A128A11C9230A1228
:100A52008A1183120313061E2F2D302D702D312D76
:100A6200061A342D352D312D80300A128A11B42305
:100A72000A128A1133300A128A1117240A128A11B1
:100A8200422D83120313861E472D482D422D861EAA
:100A92004B2D4C2D702D4D2D861A502D512D4D2D37
:100AA2000130B6000030B70080300A128A11B42338
:100AB2000A128A1123300A128A1117240A128A1181
:100AC2001030F0002730F1000A128A118D230A1229
:100AD2008A1101300A128A11B4230A128A110130D2
:100AE2008312031336063704031D782D792DF62E53
:100AF200071487100711061C7F2D802D9C2D812D38
:100B02000618842D852D812D31300A128A119F23DA
:100B12000A128A117A08F9007907203E840001300E
:100B220083138000840A003080000130FA07031822
:100B3200FB0A0030FB0783120313861CA12DA22D92
:100B4200BE2DA32D8618A62DA72DA32D34300A1253
:100B52008A119F230A128A117A08F9007907203E26
:100B62008400043083138000840A00308000013046
:100B7200FA070318FB0A0030FB0783120313061D52
:100B8200C32DC42DE02DC52D0619C82DC92DC52D87
:100B920037300A128A119F230A128A117A08F90041
:100BA2007907203E8400073083138000840A0030D6
:100BB20080000130FA070318FB0A0030FB0783129A
:100BC2000313861DE52DE62DF12DE72D8619EA2D5D
:100BD200EB2DE72D2A300A128A119F230A128A115D
:100BE20083120313071087140711061CF92DFA2D1F
:100BF200162EFB2D0618FE2DFF2DFB2D32300A126C
:100C02008A119F230A128A117A08F9007907203E75
:100C12008400023083138000840A00308000013097
:100C2200FA070318FB0A0030FB0783120313861C22
:100C32001B2E1C2E382E1D2E8618202E212E1D2EE8
:100C420035300A128A119F230A128A117A08F90092
:100C52007907203E8400053083138000840A003027
:100C620080000130FA070318FB0A0030FB078312E9
:100C72000313061D3D2E3E2E5A2E3F2E0619422EDE
:100C8200432E3F2E38300A128A119F230A128A11EC
:100C92007A08F9007907203E840008308313800027
:100CA200840A003080000130FA070318FB0A003082
:100CB200FB0783120313861D5F2E602E7C2E612E8E
:100CC2008619642E652E612E30300A128A119F23F6
:100CD2000A128A117A08F9007907203E840000304E
:100CE20083138000840A003080000130FA07031861
:100CF200FB0A0030FB078312031307108710071546
:100D0200061C842E852EA12E862E0618892E8A2E4A
:100D1200862E33300A128A119F230A128A117A0808
:100D2200F9007907203E8400033083138000840A8F
:100D3200003080000130FA070318FB0A0030FB077D
:100D420083120313861CA62EA72EC32EA82E861846
:100D5200AB2EAC2EA82E36300A128A119F230A120D
:100D62008A117A08F9007907203E8400063083133D
:100D72008000840A003080000130FA070318FB0A61
:100D82000030FB0783120313061DC82EC92EE52E61
:100D9200CA2E0619CD2ECE2ECA2E39300A128A112B
:100DA2009F230A128A117A08F9007907203E8400EB
:100DB200093083138000840A003080000130FA0772
:100DC2000318FB0A0030FB0783120313861DEA2E69
:100DD200EB2EF62EEC2E8619EF2EF02EEC2E233073
:100DE2000A128A119F230A128A117B08803AFE0096
:100DF20080307E02031DFF2E0A307A02031C022F6E
:100E0200032FFC2F0130831203133C063D04031D04
:100E12000B2F0C2FFC2F06170030B6000030B70046
:100E2200C0300A128A11B4230A128A1101300A123E
:100E32008A1117240A128A111030F0002730F100AB
:100E42000A128A118D230A128A1101300A128A119A
:100E5200B4230A128A113C30FC000030FD00FD1F51
:100E6200332F342F352FFC2F0A30F0000030F100E1
:100E72007D08F301F3077C08F201F2070A128A11D6
:100E8200A2240A128A11710883120313B301B30751
:100E92007008B201B2070A30F0000030F1007D089C
:100EA200F301F3077C08F201F2070A128A114224C5
:100EB2000A128A11710883120313B501B50770086B
:100EC200B401B40780300A128A11B4230A128A11BB
:100ED200831203133208303E0A128A119F230A1228
:100EE2008A11E830F0000330F1000A128A118D23D2
:100EF2000A128A1181300A128A11B4230A128A1143
:100F0200831203133408303E0A128A119F230A12F5
:100F12008A11E830F0000330F1000A128A118D23A1
:100F22000A128A1183120313861E982F992FA12F5A
:100F32007C083C3EFC007D080318013E003EFD009B
:100F42007D08803AFE0080307E02031DAA2F0B30FE
:100F52007C020318AD2FAE2FC62F83120313861700
:100F6200B830F0000B30F1000A128A118D230A12F8
:100F72008A11831203138613B830F0000B30F1008C
:100F82000A128A118D230A128A1101307C067D040D
:100F9200031DCC2FCD2FF22F0030FA000030FB00C2
:100FA200003083120313BC000030BD00E830F000B3
:100FB2000330F1000A128A118D230A128A110130BC
:100FC2000A128A11B4230A128A1113300A128A11E0
:100FD20017240A128A1101300A128A11B4230A1242
:100FE2008A11FF30FC070318FD0AFF30FD07FD1FC1
:0E0FF200FB2FFC2F352F2A2D0A128A11002802
:00000001FF
