:060000000A128A11F32D23
:100B8A00F000C72D0130F0027008FF3A031DCE2D88
:100B9A00CF2DC72D0800710883120313860008138E
:100BAA0086108817E8300A128A11C5250A128A1196
:100BBA008312031388130800F100710883120313C8
:100BCA008600081786108817E8300A128A11C52588
:100BDA000A128A118312031388130800FB01FC010D
:100BEA00A001A101A201A301A401A501A601A701D7
:100BFA00A801A901AA01AB01AC01AD0183010A1246
:100C0A008A110E2F3830F1000030F2000A128A11D0
:100C1A00D0250A128A110630F1000030F2000A12B9
:100C2A008A11D0250A128A110C30F1000030F20024
:100C3A000A128A11D0250A128A118030F100003076
:100C4A00F2000A128A11D0250A128A11C030F10064
:100C5A000030F2000A128A11D0250A128A110130D4
:100C6A00F1000030F2000A128A11D0250A128A1104
:100C7A0008000310003003180130F600F31F462E57
:100C8A00472E4F2EF209F309F20A0319F30AF60165
:100C9A000314F60DF11F522E532E582EF009F109A6
:100CAA00F00A0319F10A7108700403195D2E5E2E09
:100CBA008E2EF5010314F50D6D2E01300310F00D83
:100CCA00F10DFF3E031D632E0130F4007408F50791
:100CDA00F11F702E712E622E71087302031D772E7A
:100CEA0070087202031C7A2E7B2E812E7008F20283
:100CFA007108031CF303F30201300310F10CF00C2A
:100D0A00FF3E031D822E0130F502031D8D2E8E2E0D
:100D1A00712E7608031D922E972EF209F309F20A14
:100D2A000319F30A7308F101F1077208F001F007D9
:100D3A0008000310003003180130F600F11FA62E38
:100D4A00A72EAF2EF009F109F00A0319F10AF601EC
:100D5A000314F60DF31FB22EB32EBC2EF209F309BB
:100D6A00F20A0319F30A0130F4007408F606003097
:100D7A00F7000030F800710870040319C52EC62E5A
:100D8A00FE2EF5010314F50DD52E01300310F00DDA
:100D9A00F10DFF3E031DCB2E0130F4007408F50758
:100DAA00F11FD82ED92ECA2E01300310F70DF80DD7
:100DBA00FF3E031DDA2E71087302031DE62E70082A
:100DCA007202031CE92EEA2EF12E7008F202710853
:100DDA00031CF303F302771401300310F10CF00C37
:100DEA00FF3E031DF22E0130F502031DFD2EFE2EDD
:100DFA00D92E7608031D022F072FF709F809F70ADB
:100E0A000319F80A7808F101F1077708F001F007E9
:100E1A0008008316031386018312031386018316BF
:100E2A000313880183120313880140309F008E3018
:100E3A00831603139F000A128A1107260A128A11BF
:100E4A00831203139F121F129F111F141F080438C5
:100E5A009F001E08F900FA010830FE000310F90D80
:100E6A00FA0DFE0B332F7908FB007A08FC00831673
:100E7A0003131E087B07FB007C0803187C0AFC008E
:100E8A00E830F0000330F1007C08F301F3077B0837
:100E9A00F201F2070A128A119E260A128A117108B1
:100EAA0083120313A101A1077008A001A007E8306B
:100EBA00F0000330F1007C08F301F3077B08F2012C
:100ECA00F2070A128A113E260A128A11710883123F
:100EDA000313A301A3077008A201A2076430F0005C
:100EEA000030F1002308F301F3072208F201F207A8
:100EFA000A128A119E260A128A1171088312031392
:100F0A00A501A5077008A401A4076430F000003009
:100F1A00F1002308F301F3072208F201F2070A128B
:100F2A008A113E260A128A11710883120313A70135
:100F3A00A7077008A601A6070A30F0000030F100E2
:100F4A002708F301F3072608F201F2070A128A11A9
:100F5A009E260A128A11710883120313A901A9078E
:100F6A007008A801A8070A30F0000030F10027082D
:100F7A00F301F3072608F201F2070A128A113E2644
:100F8A000A128A11710883120313AB01AB077008A6
:100F9A00AA01AA07C030F1000030F2000A128A1131
:100FAA00D0250A128A11831203132008303E0A122E
:100FBA008A11E1250A128A11831203132408303E8A
:100FCA000A128A11E1250A128A11831203132808C8
:100FDA00303E0A128A11E1250A128A11831203137A
:100FEA002A08303E0A128A11E1250A128A11252F8F
:060FFA000A128A11002812
:02400E00723FFF
:00000001FF
