:100000000A128A11F52A00308A000408840A82073D
:10001000003448342E34773469346E346434003418
:1000200048342E347234613469346E3400345734B9
:0800300069346E3464340034BD
:1005300064008001840A0406031900340406992A21
:100540000134003401340034013400340134003407
:100550007E088A007F088200A8220A128A11800081
:10056000840A04087D0603190034FF0A0319FE0AF1
:10057000AC2ABA2A0130F0020030031CF103F10268
:10058000FF307106031DC62AFF307006031DC92AFD
:10059000CA2ABA2A0800F2007208831203138800DC
:1005A000071487100715E830F0000330F1000A1235
:1005B0008A11B9220A128A11831203130711080043
:1005C000F2007208831203138800071087100715C2
:1005D000E830F0000330F1000A128A11B9220A1241
:1005E0008A118312031307110800FB01FC01831316
:1005F000203084004A300A128A1198220A128A1185
:100600005230FD000230FE00A030FF004A3084006E
:100610000A128A11AC220A128A1183010A128A1163
:100620002B2C38300A128A11E0220A128A110C305F
:100630000A128A11E0220A128A1180300A128A11E3
:10064000E0220A128A11C0300A128A11E0220A122C
:100650008A1101300A128A11E0220A128A11080056
:10066000F300003083120313C4000030C5004D2B8B
:100670004408730784000A128A1103200A128A119F
:100680000A128A11CB220A128A1101308312031333
:10069000C4070318C50A0030C5074408730784005F
:1006A0000A128A1103200A128A11303A031D592BAB
:1006B0005A2B382B08000310003003180130F600C5
:1006C000F31F632B642B6C2BF209F309F20A031955
:1006D000F30AF6010314F60DF11F6F2B702B752B27
:1006E000F009F109F00A0319F10A710870040319FD
:1006F0007A2B7B2BAB2BF5010314F50D8A2B0130E4
:100700000310F00DF10DFF3E031D802B0130F400AE
:100710007408F507F11F8D2B8E2B7F2B7108730248
:10072000031D942B70087202031C972B982B9E2B91
:100730007008F2027108031CF303F3020130031086
:10074000F10CF00CFF3E031D9F2B0130F502031D41
:10075000AA2BAB2B8E2B7608031DAF2BB42BF209E3
:10076000F309F20A0319F30A7308F101F107720899
:10077000F001F00708000310003003180130F60004
:10078000F11FC32BC42BCC2BF009F109F00A03197C
:10079000F10AF6010314F60DF31FCF2BD02BD92B42
:1007A000F209F309F20A0319F30A0130F40074089C
:1007B000F6060030F7000030F800710870040319E5
:1007C000E22BE32B1B2CF5010314F50DF22B01306A
:1007D0000310F00DF10DFF3E031DE82B0130F40076
:1007E0007408F507F11FF52BF62BE72B01300310EA
:1007F000F70DF80DFF3E031DF72B71087302031D63
:10080000032C70087202031C062C072C0E2C700897
:10081000F2027108031CF303F30277140130031092
:10082000F10CF00CFF3E031D0F2C0130F502031DEF
:100830001A2C1B2CF62B7608031D1F2C242CF709D1
:10084000F809F70A0319F80A7808F101F10777089F
:10085000F001F0070800403083160313860083126E
:100860000313860183160313870183120313870181
:1008700083160313880183120313880148309F00F5
:100880008E30831603139F000A128A1111230A1255
:100890008A11831203139F121F129F111F142C30F1
:1008A000F0000130F1000A128A11B9220A128A11ED
:1008B000831203131F0804389F002C30F00001300E
:1008C000F1000A128A11B9220A128A118312031343
:1008D0001E08F900FA010830FE000310F90DFA0DA8
:1008E000FE0B6D2C7908C6007A08C7002C30F0008A
:1008F0000130F1000A128A11B9220A128A118316F4
:1009000003131E08831203134607C6004708031883
:10091000470AC7002C30F0000130F1000A128A119A
:10092000B9220A128A11E830F0000330F100831274
:1009300003134708F301F3074608F201F2070A120E
:100940008A11BB230A128A11710883120313A101B1
:10095000A1077008A001A007E830F0000330F10003
:100960004708F301F3074608F201F2070A128A1159
:100970005B230A128A11710883120313A701A707C8
:100980007008A601A6076430F0000030F1002708C7
:10099000F301F3072608F201F2070A128A11BB23BA
:1009A0000A128A11710883120313AD01AD07700892
:1009B000AC01AC076430F0000030F1002708F3010F
:1009C000F3072608F201F2070A128A115B230A12C2
:1009D0008A11710883120313B301B3077008B201BF
:1009E000B2070A30F0000030F1003308F301F307DA
:1009F0003208F201F2070A128A11BB230A128A1185
:100A0000710883120313B901B9077008B801B80758
:100A10000A30F0000030F1003308F301F307320828
:100A2000F201F2070A128A115B230A128A11710875
:100A300083120313BF01BF077008BE01BE078030D9
:100A40000A128A11E0220A128A1183120313200863
:100A5000303E0A128A11CB220A128A118312031322
:100A60002C08303E0A128A11CB220A128A118312F4
:100A700003133808303E0A128A11CB220A128A1157
:100A8000831203133E08303E0A128A11CB220A1247
:100A90008A11831203134708803AFE0081307E02D8
:100AA000031D542DF5304602031C572D582D7C2D67
:100AB0000130831203134C064D04031D602D612D7C
:100AC0007C2DC0300A128A11E0220A128A110330EA
:100AD0000A128A1130230A128A110030831203137A
:100AE000CC000030CD00E830F0000330F1000A12F5
:100AF0008A11B9220A128A11831203139F121F123C
:100B00009F151F142C30F0000130F1000A128A11D9
:100B1000B9220A128A11831203131F0804389F0096
:100B20002C30F0000130F1000A128A11B9220A12A9
:100B30008A11831203131E08F900FA010830FE001F
:100B40000310F90DFA0DFE0BA02D7908C8007A08E4
:100B5000C9002C30F0000130F1000A128A11B922CC
:100B60000A128A11831603131E08831203134807FF
:100B7000C80049080318490AC9002C30F0000130A8
:100B8000F1000A128A11B9220A128A11E830F00023
:100B90000330F100831203134908F301F3074808F7
:100BA000F201F2070A128A11BB230A128A11710894
:100BB00083120313A301A3077008A201A207E83060
:100BC000F0000330F1004908F301F3074808F2018F
:100BD000F2070A128A115B230A128A117108831222
:100BE0000313A901A9077008A801A8076430F00041
:100BF0000030F1002908F301F3072808F201F20799
:100C00000A128A11BB230A128A1171088312031374
:100C1000AF01AF077008AE01AE076430F0000030DE
:100C2000F1002908F301F3072808F201F2070A127C
:100C30008A115B230A128A11710883120313B5010A
:100C4000B5077008B401B4070A30F0000030F100B5
:100C50003508F301F3073408F201F2070A128A118A
:100C6000BB230A128A11710883120313BB01BB074D
:100C70007008BA01BA070A30F0000030F1003508F8
:100C8000F301F3073408F201F2070A128A115B2319
:100C90000A128A11710883120313C101C107700877
:100CA000C001C00785300A128A11E0220A128A1197
:100CB000831203132208303E0A128A11CB220A1231
:100CC0008A11831203132E08303E0A128A11CB2296
:100CD0000A128A11831203133A08303E0A128A114B
:100CE000CB220A128A11831203134008303E0A12E3
:100CF0008A11CB220A128A11831203134908803AFF
:100D0000FE0083307E02031D872E21304802031C23
:100D10008A2E8B2EAF2E0130831203134E064F0402
:100D2000031D932E942EAF2EC5300A128A11E02295
:100D30000A128A1101300A128A1130230A128A110A
:100D4000003083120313CE000030CF00E830F000F3
:100D50000330F1000A128A11B9220A128A11831291
:100D600003139F121F169F111F142C30F000013027
:100D7000F1000A128A11B9220A128A11831203138E
:100D80001F0804389F002C30F0000130F1000A12D7
:100D90008A11B9220A128A11831203131E08F9005C
:100DA000FA010830FE000310F90DFA0DFE0BD32EE8
:100DB0007908FB007A08FC002C30F0000130F100CB
:100DC0000A128A11B9220A128A11831603131E0805
:100DD0007B07FB007C0803187C0AFC002C30F00029
:100DE0000130F1000A128A11B9220A128A11E83080
:100DF000F0000330F1007C08F301F3077B08F201F7
:100E0000F2070A128A11BB230A128A11710883128F
:100E10000313A501A5077008A401A407E830F0009A
:100E20000330F1007C08F301F3077B08F201F207BD
:100E30000A128A115B230A128A11710883120313A2
:100E4000AB01AB077008AA01AA076430F0000030BC
:100E5000F1002B08F301F3072A08F201F2070A1246
:100E60008A11BB230A128A11710883120313B1017C
:100E7000B1077008B001B0076430F0000030F10035
:100E80002B08F301F3072A08F201F2070A128A116C
:100E90005B230A128A11710883120313B701B70783
:100EA0007008B601B6070A30F0000030F1003708CC
:100EB000F301F3073608F201F2070A128A11BB2385
:100EC0000A128A11710883120313BD01BD0770084D
:100ED000BC01BC070A30F0000030F1003708F30114
:100EE000F3073608F201F2070A128A115B230A128D
:100EF0008A11710883120313C301C3077008C2016A
:100F0000C2078A300A128A11E0220A128A11831259
:100F100003132408303E0A128A11CB220A128A11C6
:100F2000831203133008303E0A128A11CB220A12B0
:100F30008A11831203133C08303E0A128A11CB2215
:100F40000A128A11831203134208303E0A128A11D0
:100F5000CB220A128A117C08803AFE0083307E027E
:100F6000031DB42FE9307B02031CB72FB82FDC2FF1
:100F700001308312031350065104031DC02FC12FEB
:100F8000DC2FCA300A128A11E0220A128A110830B4
:100F90000A128A1130230A128A11003083120313B5
:100FA000D0000030D100E830F0000330F1000A1228
:100FB0008A11B9220A128A1183120313061FE12F24
:100FC000E22FFC2F01304A064B04031DE82FE92FC6
:100FD000FC2F0614C5300A128A11E0220A128A1167
:100FE0000F300A128A1130230A128A11003083123C
:100FF0000313CA000030CB00492C0A128A110028C2
:00000001FF
