:060000000A128A1110280B
:10000800FE000308F3000408F4000A08F5007F085E
:10001800F6000A128A11632B0A128A11FC2B183077
:100028008316031386008312031386018030831618
:1000380003138700831203138701831603138801B0
:1000480083120313880148309F008E3083160313F0
:100058009F000A128A119F230A128A1124308316DC
:1000680003139800903083120313980019308316F5
:10007800031399008B170B178C16831203139F1207
:100088001F129F111F142C30DC000130DD000A12F2
:100098008A11E8230A128A11831203131F080438ED
:1000A8009F002C30DC000130DD000A128A11E823A1
:1000B8000A128A11831203131E08E500E6010830AC
:1000C800FE000310E50DE60DFE0B65286508D60059
:1000D8006608D7002C30DC000130DD000A128A11D6
:1000E800E8230A128A11831603131E0883120313C6
:1000F8005607D60057080318570AD7002C30DC00DB
:100108000130DD000A128A11E8230A128A11E83048
:1001180083120313DC000330DD005708DF01DF071B
:100128005608DE01DE070A128A118F220A128A1186
:10013800831203135D08BD01BD075C08BC01BC0741
:10014800E830DC000330DD005708DF01DF07560820
:10015800DE01DE070A128A1101230A128A118312AC
:1001680003135D08C101C1075C08C001C007643002
:10017800DC000030DD004108DF01DF074008DE0158
:10018800DE070A128A118F220A128A1183120313B8
:100198005D08C501C5075C08C401C4076430DC00FC
:1001A8000030DD004108DF01DF074008DE01DE071F
:1001B8000A128A1101230A128A11831203135D0895
:1001C800C901C9075C08C801C8070A30DC0000304B
:1001D800DD004908DF01DF074808DE01DE070A12F3
:1001E8008A118F220A128A11831203135D08CD0126
:1001F800CD075C08CC01CC070A30DC000030DD00FC
:100208004908DF01DF074808DE01DE070A128A1104
:1002180001230A128A11831203135D08D101D10741
:100228005C08D001D00780300A128A11BE230A1256
:100238008A1154300A128A11D3230A128A113D30C6
:100248000A128A11D3230A128A11831203133C0853
:10025800303E0A128A11D3230A128A118312031319
:100268004408303E0A128A11D3230A128A118312D3
:1002780003134C08303E0A128A11D3230A128A113A
:10028800831203135008303E0A128A11D3230A122C
:100298008A11831203139F121F129F151F142C30EB
:1002A800DC000130DD000A128A11E8230A128A11E3
:1002B800831203131F0804389F002C30DC00013020
:1002C800DD000A128A11E8230A128A118312031325
:1002D8001E08E500E6010830FE000310E50DE60DF6
:1002E800FE0B71296508D8006608D9002C30DC009F
:1002F8000130DD000A128A11E8230A128A118316D6
:1003080003131E08831203135807D800590803184B
:10031800590AD9002C30DC000130DD000A128A119C
:10032800E8230A128A11E83083120313DC00033031
:10033800DD005908DF01DF075808DE01DE070A1271
:100348008A118F220A128A11831203135D08BF01D2
:10035800BF075C08BE01BE07E830DC000330DD00E3
:100368005908DF01DF075808DE01DE070A128A1183
:1003780001230A128A11831203135D08C301C307FC
:100388005C08C201C2076430DC000030DD004308AD
:10039800DF01DF074208DE01DE070A128A118F2219
:1003A8000A128A11831203135D08C701C7075C0884
:1003B800C601C6076430DC000030DD004308DF01F9
:1003C800DF074208DE01DE070A128A1101230A123A
:1003D8008A11831203135D08CB01CB075C08CA019D
:1003E800CA070A30DC000030DD004B08DF01DF07F8
:1003F8004A08DE01DE070A128A118F220A128A11C0
:10040800831203135D08CF01CF075C08CE01CE0726
:100418000A30DC000030DD004B08DF01DF074A0846
:10042800DE01DE070A128A1101230A128A118312D9
:1004380003135D08D301D3075C08D201D207C0308B
:100448000A128A11BE230A128A1148300A128A1126
:10045800D3230A128A113D300A128A11D3230A12B1
:100468008A11831203133E08303E0A128A11D323DD
:100478000A128A11831203134608303E0A128A119F
:10048800D3230A128A11831203134E08303E0A122C
:100498008A11D3230A128A11831203135208303E99
:1004A8000A128A11D3230A128A11831203135708D6
:1004B800803AFE0081307E02031D642A2C305602E9
:1004C800031C672A682A6C2A8312031386166D2A6E
:1004D800861238302A062B04031D732A742A8B2AA5
:1004E800393028062904031D7A2A7B2A8B2A4130B1
:1004F80099000030DA000030DB000617E830DC0035
:100508000330DD000A128A11E8230A128A114128F1
:100518000A128A11102803100030031801308312C0
:100528000313E200DD1F992A9A2AA22ADC09DD09B1
:10053800DC0A0319DD0AE2010314E20DDF1FA52A14
:10054800A62AAF2ADE09DF09DE0A0319DF0A01300D
:10055800E0006008E2060030E3000030E4005D08D7
:100568005C040319B82AB92AF12AE1010314E10D40
:10057800C82A01300310DC0DDD0DFF3E031DBE2A25
:100588000130E0006008E107DD1FCB2ACC2ABD2A34
:1005980001300310E30DE40DFF3E031DCD2A5D0875
:1005A8005F02031DD92A5C085E02031CDC2ADD2ACF
:1005B800E42A5C08DE025D08031CDF03DF02631423
:1005C80001300310DD0CDC0CFF3E031DE52A013071
:1005D800E102031DF02AF12ACC2A6208031DF52A3C
:1005E800FA2AE309E409E30A0319E40A6408DD01C5
:1005F800DD076308DC01DC0708000310003003187E
:10060800013083120313E200DF1F0B2B0C2B142B7A
:10061800DE09DF09DE0A0319DF0AE2010314E20D2D
:10062800DD1F172B182B1D2BDC09DD09DC0A03192C
:10063800DD0A5D085C040319222B232B532BE101EF
:100648000314E10D322B01300310DC0DDD0DFF3EEC
:10065800031D282B0130E0006008E107DD1F352B62
:10066800362B272B5D085F02031D3C2B5C085E02BE
:10067800031C3F2B402B462B5C08DE025D08031C45
:10068800DF03DF0201300310DD0CDC0CFF3E031D2D
:10069800472B0130E102031D522B532B362B6208E6
:1006A800031D572B5C2BDE09DF09DE0A0319DF0A5D
:1006B8005F08DD01DD075E08DC01DC070800831246
:1006C80003138C1E682B692B942B0030F700003025
:1006D800F800832B1A08F000F1015408F2007207A1
:1006E800203E8400700883138000840A710880000B
:1006F8008C120130F7070318F80A0030F80777085A
:10070800F0007007203E84000008F100840A000809
:10071800F200303071067204031D932B942B6E2B5C
:100728007608FF0075088A0074088400730883003F
:10073800FE0E7E0E090038300A128A11BE230A12F4
:100748008A110C300A128A11BE230A128A118030CB
:100758000A128A11BE230A128A11C0300A128A119B
:10076800BE230A128A1101300A128A11BE230A1204
:100778008A11080083120313DE005E088800061041
:1007880086100615E830DC000330DD000A128A11F5
:10079800E8230A128A118312031306110800831230
:1007A8000313DE005E088800061486100615E8307C
:1007B800DC000330DD000A128A11E8230A128A11CC
:1007C8008312031306110800E92B01308312031367
:1007D800DC020030031CDD03DD02FF305D06031D73
:1007E800F72BFF305C06031DFA2BFB2BE92B0800C7
:1007F800F701F8018313203084005C300A128A1153
:100808000B240A128A1183010A128A111328640020
:0E0818008001840A04060319003404060C2C27
:02400E00723FFF
:00000001FF
