:100000000A128A11D72BFF1B0D2883137F18831721
:100010000008840A0319FF0A080000308A00040857
:10002000840A82070034413454342B3443344D3431
:10003000473453343D3422342B3439343134393459
:10004000363430343034373437343934303436346D
:10005000323422340D340A340034413454342B34D5
:1000600043344D34473446343D3431340D340A344E
:10007000003441345434453430340D340A340034BF
:10008000413454340D340A34003448344234533447
:100090003A340034483445344C3450340034543409
:0600A00053343A34003431
:10079E0064008001840A0406031900340406D02B79
:1007AE00FB01FC018313203084003C300A128A11B5
:1007BE00CF230A128A1183010A128A11702DE72B98
:1007CE000130F0020030031CF103F102FF3071061C
:1007DE00031DF32BFF307006031DF62BF72BE72BB3
:1007EE000800F200720883120313880006148610A4
:1007FE000615E830F0000330F1000A128A11E623E4
:10080E000A128A118312031306110800F2007208ED
:10081E00831203138800061086100615E830F000C8
:10082E000330F1000A128A11E6230A128A1183128A
:10083E0003130611080038300A128A110D240A1209
:10084E008A110C300A128A110D240A128A11803074
:10085E000A128A110D240A128A11C0300A128A1144
:10086E000D240A128A1101300A128A110D240A125D
:10087E008A110800F300003083120313B800003011
:10088E00B9005E2C3808730784000A128A110D20F5
:10089E000A128A110A128A11F8230A128A110130D9
:1008AE0083120313B8070318B90A0030B9073808C2
:1008BE00730784000A128A110D200A128A11003859
:1008CE00031D6A2C6B2C492C080000308312031375
:1008DE00B8000030B9008D2C380870078400390834
:1008EE000318390A7107FF000A128A1103200A122F
:1008FE008A119900822C0C1E852C862C822C0C12AF
:10090E000130B8070318B90A0030B9073808700764
:10091E00840039080318390A7107FF000A128A1178
:10092E0003200A128A110038031D9E2C9F2C732C53
:10093E0008000310003003180130F600F31FA82C36
:10094E00A92CB12CF209F309F20A0319F30AF601E4
:10095E000314F60DF11FB42CB52CBA2CF009F109C5
:10096E00F00A0319F10A710870040319BF2CC02C88
:10097E00F02CF5010314F50DCF2C01300310F00D02
:10098E00F10DFF3E031DC52C0130F4007408F50770
:10099E00F11FD22CD32CC42C71087302031DD92C39
:1009AE0070087202031CDC2CDD2CE32C7008F202A2
:1009BE007108031CF303F30201300310F10CF00C69
:1009CE00FF3E031DE42C0130F502031DEF2CF02C2D
:1009DE00D32C7608031DF42CF92CF209F309F20A34
:1009EE000319F30A7308F101F1077208F001F00719
:1009FE0008000310003003180130F600F11F082D17
:100A0E00092D112DF009F109F00A0319F10AF60169
:100A1E000314F60DF31F142D152D1E2DF209F309D7
:100A2E00F20A0319F30A0130F4007408F6060030D6
:100A3E00F7000030F800710870040319272D282DD7
:100A4E00602DF5010314F50D372D01300310F00D57
:100A5E00F10DFF3E031D2D2D0130F4007408F50736
:100A6E00F11F3A2D3B2D2C2D01300310F70DF80DF3
:100A7E00FF3E031D3C2D71087302031D482D7008A7
:100A8E007202031C4B2D4C2D532D7008F20271086F
:100A9E00031CF303F302771401300310F10CF00C76
:100AAE00FF3E031D542D0130F502031D5F2D602DF9
:100ABE003B2D7608031D642D692DF709F809F70AF9
:100ACE000319F80A7808F101F1077708F001F00729
:100ADE0008008316031386018312031386018316FF
:100AEE000313880183120313880148309F008E3050
:100AFE00831603139F00193099002430980090300C
:100B0E008312031398000A128A1122240A128A11E0
:100B1E002E30F0008030F1000A128A116C240A1275
:100B2E008A112730F0008030F1000A128A116C24ED
:100B3E000A128A11831203139F121F129F111F1480
:100B4E002C30F0000130F1000A128A11E6230A124D
:100B5E008A11831203131F0804389F002C30F000F3
:100B6E000130F1000A128A11E6230A128A11831249
:100B7E0003131E08F900FA010830FE000310F90DE8
:100B8E00FA0DFE0BC52D7908FB007A08FC002C30FF
:100B9E00F0000130F1000A128A11E6230A128A11BE
:100BAE00831603131E087B07FB007C0803187C0AC0
:100BBE00FC002C30F0000130F1000A128A11E623FD
:100BCE000A128A11E830F0000330F1007C08F301BC
:100BDE00F3077B08F201F2070A128A1100250A12A6
:100BEE008A11710883120313A101A1077008A001D5
:100BFE00A007E830F0000330F1007C08F301F307A2
:100C0E007B08F201F2070A128A11A0240A128A1135
:100C1E00710883120313A501A5077008A401A40788
:100C2E006430F0000030F1002508F301F3072408CA
:100C3E00F201F2070A128A1100250A128A117108AE
:100C4E0083120313A901A9077008A801A80764302D
:100C5E00F0000030F1002508F301F3072408F2013B
:100C6E00F2070A128A11A0240A128A11710883123D
:100C7E000313AD01AD077008AC01AC070A30F000EC
:100C8E000030F1002D08F301F3072C08F201F207F2
:100C9E000A128A1100250A128A117108831203138F
:100CAE00B101B1077008B001B0070A30F000003092
:100CBE00F1002D08F301F3072C08F201F2070A12D6
:100CCE008A11A0240A128A11710883120313B50126
:100CDE00B5077008B401B40780300A128A110D24CA
:100CEE000A128A1133300A128A1141240A128A1109
:100CFE00831203132008303E0A128A11F8230A12B7
:100D0E008A11831203132808303E0A128A11F8231F
:100D1E000A128A11831203133008303E0A128A1106
:100D2E00F8230A128A11831203133408303E0A1272
:100D3E008A11F8230A128A11831203139F121F12AB
:100D4E009F151F142C30F0000130F1000A128A1189
:100D5E00E6230A128A11831203131F0804389F0018
:100D6E002C30F0000130F1000A128A11E6230A122B
:100D7E008A11831203131E08F900FA010830FE00CF
:100D8E000310F90DFA0DFE0BC72E7908BA007A087A
:100D9E00BB002C30F0000130F1000A128A11E6235C
:100DAE000A128A11831603131E08831203133A07BD
:100DBE00BA003B0803183B0ABB002C30F000013090
:100DCE00F1000A128A11E6230A128A11E830F000A5
:100DDE000330F100831203133B08F301F3073A08C3
:100DEE00F201F2070A128A1100250A128A117108FD
:100DFE0083120313A301A3077008A201A207E83010
:100E0E00F0000330F1003B08F301F3073A08F2015A
:100E1E00F2070A128A11A0240A128A11710883128B
:100E2E000313A701A7077008A601A6076430F000F8
:100E3E000030F1002708F301F3072608F201F2074C
:100E4E000A128A1100250A128A11710883120313DD
:100E5E00AB01AB077008AA01AA076430F00000309E
:100E6E00F1002708F301F3072608F201F2070A1230
:100E7E008A11A0240A128A11710883120313AF017A
:100E8E00AF077008AE01AE070A30F0000030F10077
:100E9E002F08F301F3072E08F201F2070A128A1146
:100EAE0000250A128A11710883120313B301B307C6
:100EBE007008B201B2070A30F0000030F1002F08BE
:100ECE00F301F3072E08F201F2070A128A11A02489
:100EDE000A128A11710883120313B701B70770083B
:100EEE00B601B607C0300A128A110D240A128A11F1
:100EFE003D300A128A1141240A128A1183120313F9
:100F0E002208303E0A128A11F8230A128A1183121D
:100F1E0003132A08303E0A128A11F8230A128A1184
:100F2E00831203133208303E0A128A11F8230A1272
:100F3E008A11831203133608303E0A128A11F823DF
:100F4E000A128A117C08803AFE0080307E02031D50
:100F5E00B22FC8307B02031CB52FB62FF92F831288
:100F6E00031386151B30F0008030F1000A128A112F
:100F7E006C240A128A11C830F0000030F1000A12F7
:100F8E008A11E6230A128A110130F0008030F10036
:100F9E000A128A116C240A128A11C830F00000302D
:100FAE00F1000A128A11E6230A128A113830F00073
:100FBE008030F1000A128A116C240A128A11C8308C
:100FCE00F0000030F1000A128A11E6230A128A118B
:100FDE001A30F0000030F1000A128A116C240A1245
:100FEE008A11FC2F831203138611A12D0A128A1166
:020FFE000028C9
:02400E00723FFF
:00000001FF
